:020000020000FC
:1000000044C01895189518951895189518950DC011
:100010001895189518951895189518951895189578
:10002000189518951895189518951F932F936F93F9
:100030006CB101FF0DC00D7F6883D0E0C8E9188165
:10004000103049F06981AED06F912F911F911895B2
:1000500069930260F9CFB0E0A0E61AE128E885D004
:1000600011E020ED82D011E120EE7FD014E022EFEC
:100070007CD018E027EF79D019E3B0E0A0E61A951C
:1000800019F06D9198D0FBCFDFCF1FED1DBF10E8A9
:1000900018B910E816BD13E016BD1FEF1BBB18BB47
:1000A00012BB0ABA07BA01BABF9ABD9A1AE21DB9C1
:1000B00010EF1EB9C79AC59A10E215BF1CE019B916
:1000C00010E012B91BB918E91AB916E013B9D0E05B
:1000D000C8E978948895FECF1F931AE01A95F1F736
:1000E0001F9108951F93C59AC79ABF9810EF1EB924
:1000F000C598F2DFBF9AC798C59AEEDF1F910895A1
:10010000C798EADFC598E8DFC79AE6DFC59AE4DF5B
:10011000759A08951EB91BE2DFDF1DB9DDDF1DB939
:10012000769BFACFD9DF6FB11FEF1FB9BD9A089543
:100130001F936F936FB910EFEDDFBD981EEFEADFED
:100140002BD06F911F9108951F93BD9810EFE2DFA0
:100150006F9300FF03C01FEF1FB902C010E01FB96B
:100160001EEFD8DF6F911F9108951F932F93BADF71
:100170006CEEDEDF622FDCDFB5DF6DEED9DF1A95C6
:1001800021F00E7FE1DF6D93FACF0160DDDF6D932B
:10019000B7DF2F911F910895603011F0016008952D
:1001A0000E7F08956F939EDF6CEEC2DF612FC0DF7C
:0E01B0006F91BEDF08955D9BFECF6CB9089580
:00000001FF
